:020000040800F2
:1000000040090020B53200084110000845100008E2
:10001000491000084D1000085110000800000000B1
:100020000000000000000000000000005510000863
:1000300059100008000000005D1000086110000861
:10004000CF320008CF320008CF320008CF3200088C
:10005000CF320008CF320008CF320008CF3200087C
:10006000CF320008CF320008CF320008CF3200086C
:10007000CF320008CF320008CF320008CF3200085C
:10008000CF320008CF320008CF320008CF3200084C
:10009000CF320008CF320008CF320008CF3200083C
:1000A000CF320008CF320008CF320008CF3200082C
:1000B000CF320008CF320008CF320008CF3200081C
:1000C000CF320008CF320008CF320008CF3200080C
:1000D000CF320008B931000809320008CF320008D9
:1000E000CF320008CF320008CF320008DFF80CD042
:1000F00004F0ECFB00480047010100084009002023
:1001000080B584B000200190039002F025FE01F03C
:1001100005F901F0BBF901F03FFB02F02FFB02F003
:100120002FFD00F09BF802F05DFD40F23A7001F007
:1001300081FB642002F076FE019840F2BC11C4F20B
:100140002121086048F28C11C4F2212101200860AD
:1001500048F29011C4F22121086048F29411C4F2CF
:100160002121086002F0A8FB019840F20D01C2F2C3
:1001700000010870FFE740F2B241C2F200010888B6
:100180000130088000F088F840F2B040C2F2000070
:10019000007801281CD1FFE740F2AE40C2F2000017
:1001A00001780420002918BF14208DF80B0040F2BC
:1001B000B240C2F2000002889DF80B10B2FBF1F0D1
:1001C00000FB112018B9FFE700F098F9FFE7FFE7FF
:1001D00040F2B240C2F200000078800718B9FFE791
:1001E00000F040FAFFE740F2B240C2F2000000889F
:1001F00049F69812C1F699124CF6CD41CCF6CC4195
:1002000000FB01204FEAB0004CF6CC41C0F6CC41D7
:10021000884203D8FFE700F0F5FAFFE740F2B2406A
:10022000C2F200000078C00718B9FFE700F09AFB9F
:10023000FFE740F20D00C2F20000007848B1FFE78E
:1002400000F0F2FB40F20D01C2F200010020087044
:10025000FFE7322002F0E6FD8DE700BF80B584B0F5
:1002600004200121029103F0A1FE0298ADF80C00D8
:1002700010208DF80F0003208DF80E0040F60000CE
:10028000C4F20100019003A903F06CF901980299EE
:1002900003F07EFA04B080BD80B582B0002001F08A
:1002A0007BF98DF807009DF8070008B9FFE722E108
:1002B0009DF80700013801460091052800F21B81D6
:1002C0000099DFE801F00359738CC3D140F2B040CC
:1002D000C2F20000007820BBFFE700F0D1FD40F241
:1002E000AF40C2F20000007858B9FFE700F042FDCD
:1002F00000F04AFD40F2AF41C2F200010120087057
:1003000008E000F071FD40F2AF41C2F200010020B0
:100310000870FFE740F20D01C2F2000101200870F1
:1003200029E040F2AF40C2F20000007810BBFFE7C6
:1003300000F0A6FD00F01EFD00F026FD40F2AF41EA
:10034000C2F200010120087040F20C01C2F200016B
:10035000097840F29742C2F20002117040F29942CD
:10036000C2F200020021117040F20D01C2F2000140
:100370000870FFE7FFE7BEE040F20E00C2F20000A7
:100380000088B0F5967F10DAFFE740F20E01C2F266
:10039000000108881E30088000F0ECFC40F20D01DE
:1003A000C2F2000101200870FFE7A4E040F20E0055
:1003B000C2F2000000883D2810DBFFE740F20E018A
:1003C000C2F2000108881E38088000F0D3FC40F219
:1003D0000D01C2F2000101200870FFE78BE040F23E
:1003E0009540C2F20000007878B3FFE740F29541F3
:1003F000C2F200010020087040F29C41C2F20001EC
:10040000087040F2A241C2F20001088000F0A8FC8E
:1004100000F09EFD40F29D40C2F20000007868B9F5
:10042000FFE740F2BC11C4F221210020086048F22D
:100430008C11C4F2212101200860FFE740F20D0178
:10044000C2F2000101200870FFE754E040F23E5084
:10045000C2F20000007818B1FFE700F023FD02E0CF
:1004600000F044FDFFE746E040F29840C2F2000091
:100470000078012803D1FFE700F014FDFFE740F208
:10048000AF40C2F20000007848B1FFE700F0ACFCDA
:1004900040F2AF41C2F2000100200870FFE740F2D5
:1004A000B040C2F200000178B1FA81F1490901704F
:1004B00040F29942C2F200020021117040F29742CC
:1004C000C2F20002117040F2AE42C2F2000211709C
:1004D000007838B9FFE740F29641C2F200010020EF
:1004E0000870FFE700F046FC40F20D01C2F2000187
:1004F00001200870FFE702B080BD00BF80B582B068
:1005000002F09AFB014640F29A40C2F200000180DC
:10051000008840F2E73188420DD1FFE740F299416F
:10052000C2F200010020087040F2AE41C2F20001A8
:100530000120087094E040F2A241C2F200010020C4
:10054000088040F2AF40C2F20000007801460191FD
:1005500040B1FFE7019801284DD0FFE7019802283C
:1005600064D07DE040F29A40C2F200000088132877
:1005700033DCFFE740F29940C2F20000017801311C
:1005800001700078032827DBFFE700F079FC00F01A
:10059000F1FB00F0F9FB40F2AF40C2F20000012194
:1005A000017040F20C00C2F20000007840F2974265
:1005B000C2F20002107040F2AE42C2F2000200200D
:1005C000107040F20D02C2F20002117040F2994127
:1005D000C2F200010870FFE70CE040F29941C2F25C
:1005E00000010020087040F2AE41C2F2000101207B
:1005F0000870FFE734E040F29A40C2F20000008841
:1006000013280BDCFFE740F20C00C2F20000007878
:1006100040F29741C2F20001087006E040F2AF419B
:10062000C2F2000102200870FFE719E040F29A4090
:10063000C2F200000088132811DCFFE740F2AF414E
:10064000C2F200010120087040F20C00C2F200006A
:10065000007840F29741C2F200010870FFE7FFE71F
:1006600002B080BD80B584B040F20400C2F2000048
:100670000088012808DBFFE740F20401C2F2000114
:10068000088801380880BAE040F21010C4F2212036
:100690000068002873D1FFE740F21400C2F20000A6
:1006A0000178013101700078102807DBFFE740F284
:1006B0001401C2F200010F200870FFE740F214009D
:1006C000C2F2000000780F2858DBFFE740F29840A4
:1006D000C2F20000007850B9FFE7694601200860C7
:1006E000502000210D22102301F000FEFFE740F210
:1006F000BC11C4F221210120086048F28C11C4F21F
:1007000021210020086040F29D40C2F200000078E4
:1007100098BBFFE740F29D41C2F200010120039027
:10072000087040F29541C2F20001087000F00EFB23
:100730009620029002F076FB00F012FB64200190FC
:1007400002F070FB00F002FB029802F06BFB00F07D
:1007500007FB019802F066FB00F0F8FA029802F03D
:1007600061FB00F0FDFA022000F06EFB039840F2FE
:100770000D01C2F200010870FFE7FFE73FE040F221
:100780001401C2F200010020087040F29840C2F249
:100790000000007850B9FFE769460120086050204A
:1007A00000211122102301F0A1FDFFE740F29C403F
:1007B000C2F20000007868B9FFE740F2BC11C4F251
:1007C00021210020086048F28C11C4F2212101206F
:1007D0000860FFE740F29D41C2F20001002008706E
:1007E00040F29C40C2F20000007838B9FFE740F2C6
:1007F0009541C2F2000100200870FFE7FFE704B056
:1008000080BD00BF80B586B040F23E50C2F200000D
:10081000007800283ED0FFE740F23C50C2F20000D2
:100820000088012836DBFFE740F23C51C2F20001AC
:1008300008880138088040F29840C2F20000007831
:1008400001281CD1FFE740F23C50C2F200000288B0
:1008500069460120039048601020059008605020F0
:1008600030210491032301F0B1FC03980499059B06
:100870006A4610606820732201F03CFBFFE740F2FB
:100880003C50C2F20000008818B9FFE700F00AFBF4
:10089000FFE7FFE740F2B040C2F200000078012815
:1008A0001ED1FFE740F29640C2F200000078B8B1D6
:1008B000FFE740F2AF40C2F20000007880B9FFE7E6
:1008C00040F23E50C2F20000007848B9FFE740F223
:1008D0009641C2F200010020087000F007FBFFE71C
:1008E00040F2B040C2F200000078012838D1FFE7A2
:1008F00040F2AF40C2F200000078022830D1FFE79A
:1009000040F29740C2F200000078012828DBFFE7A0
:1009100040F29740C2F2000001780139017000787E
:10092000E8B9FFE700F060FA40F2AF41C2F200011F
:100930000020087040F20D01C2F200010120087091
:1009400040F23E50C2F20000007838B9FFE740F2B2
:100950009641C2F2000101200870FFE7FFE7FFE7C0
:1009600006B080BD80B582B040F29540C2F2000072
:10097000007878B3FFE740F21100C2F20000019066
:10098000007800F00FFB01990878013000F00700B3
:10099000087040F21000C2F20000017801310170CD
:1009A0000078042807DBFFE740F21001C2F20001E3
:1009B00000200870FFE740F21000C2F2000000784B
:1009C000012803DCFFE700F0C1F902E000F0C8F9FC
:1009D000FFE727E040F21101C2F200010020087099
:1009E00040F21001C2F20001087000F0B9F948F2BB
:1009F0009411C4F221210120086048F29811C4F238
:100A00002121086048F29C11C4F22121086048F2BB
:100A1000A011C4F22121086048F2A411C4F22121DE
:100A20000860FFE702B080BD80B592B000F00EFF15
:100A300040F29840C2F200000078012820D1FFE780
:100A400001F0B4FF40F23C50C2F200000288694657
:100A500001200F9048601020119008605020302134
:100A60001091032301F0B2FB0F981099119B6A4675
:100A700010606820732201F03DFA00F0EFFE62E1A1
:100A800001F080F8694601200C90086000220D9268
:100A900010230E931046114601F028FC0C9A0D9974
:100AA0000E9B68460260184601F020FC0C980D99D8
:100AB0000E9B6A46106020200F2201F017FC0C9854
:100AC0000D990E9B6A46106030201A4601F00EFC0C
:100AD0000C980D990E9B6A46106040203A2201F056
:100AE00009FA0C980D990E9B40F29D42C2F2000249
:100AF00092F800C01122BCF1000F18BF0D22EC4685
:100B0000CCF80000502001F0F1FB0C980D990E9BE1
:100B10006A46106060200E2201F0E8FB40F2B0400F
:100B2000C2F20000007800286CD1FFE7694601207E
:100B30000990086046F64112C0F6000200200A90B3
:100B400010230B93194601F0D5FA09990A980B9BCB
:100B500040F2AF42C2F2000292F800E046F6301CCA
:100B6000C0F6000C46F60E12C0F60002BEF1000FF1
:100B700008BF6246EC46CCF80010202101F0BAFA1A
:100B800040F29540C2F20000007868B1FFE7694684
:100B90000120086046F66312C0F6000200203021F2
:100BA000102301F0A7FA2CE06946012006900860A6
:100BB00046F67D12C0F60002002030210791102376
:100BC000089301F097FADDF818C00799089840F2E9
:100BD0000E02C2F2000212886B46C3F804C018600D
:100BE0001820032301F0F2FA06980799089B6A4639
:100BF000106046F67412C0F60002084601F07AFA58
:100C0000FFE79DE069460120086046F61F12C0F626
:100C1000000200201023194601F06CFA40F2AF40A8
:100C2000C2F20000007868B9FFE769460120086059
:100C300046F63012C0F6000200202021102301F0F9
:100C400059FA22E040F2AF40C2F2000000780128D9
:100C50000DD1FFE769460120086046F60E12C0F686
:100C6000000200202021102301F044FA0CE0694624
:100C70000120086046F65212C0F600020020202132
:100C8000102301F037FAFFE7FFE740F29540C2F288
:100C90000000007868B1FFE769460120086046F669
:100CA0006312C0F6000200203021102301F022FA66
:100CB00045E0694601200390086046F67D12C0F6C3
:100CC00000020020302104911023059301F012FA54
:100CD000DDF80CC00499059840F20E02C2F2000241
:100CE00012886B46C3F804C018601820032301F073
:100CF0006DFA03980499059B6A46106046F68112C6
:100D0000C0F60002084601F0F5F9039B0499059826
:100D100040F20C02C2F200021278EC46CCF8043029
:100D2000CCF80000602001F051FA03980499059B6B
:100D30006A4610606820732201F0DCF8FFE7FFE7E5
:100D400000F08CFDFFE712B080BD00BF80B540F61B
:100D50000000C4F20100012102F024FD80BD00BFAB
:100D600080B540F60000C4F20100012102F010FD40
:100D700080BD00BF80B5FFF7E9FF502002F052F8B8
:100D8000FFF7EEFF80BD00BF80B582B040F23A7041
:100D9000ADF80600FFE7BDF8060040F29D718842FD
:100DA00019DCFFE7BDF806000A30ADF80600BDF813
:100DB000060040F29F71884205DBFFE740F29E701B
:100DC000ADF80600FFE7BDF8060000F033FD142083
:100DD00002F028F8DFE74FF4967002F023F80020C5
:100DE00000F028FD02B080BD80B582B040F29E7058
:100DF000ADF80600FFE7BDF8060040F23B718842FF
:100E000019DBFFE7BDF806000A38ADF80600BDF8AB
:100E1000060040F23971884205DCFFE740F23A7083
:100E2000ADF80600FFE7BDF8060000F003FD142052
:100E300001F0F8FFDFE74FF4967001F0F3FF0020B8
:100E400000F0F8FC02B080BD81B08DF8030040F2E4
:100E5000AC40C2F20000007807280FDCFFE79DF8E5
:100E6000030040F2AC43C2F200031A78511C19701F
:100E700040F2A441C2F200018854FFE701B070477C
:100E800080B540F23E50C2F20000007848B1FFE762
:100E900000F008F840F29641C2F20001002008700C
:100EA000FFE780BD80B582B040F23E51C2F2000142
:100EB00000200190087040F23C51C2F2000108800D
:100EC00001F086FE019948F29012C4F2212201201D
:100ED000106040F29842C2F20002117040F20D011F
:100EE000C2F20001087002B080BD00BF80B582B0C0
:100EF00040F23E50C2F20000007808B1FFE724E063
:100F000040F23E51C2F2000101200190087040F20F
:100F10000E00C2F20000008840F23C51C2F2000113
:100F2000088001F04BFE019848F29012C4F2212291
:100F30000021116040F29841C2F20001087040F2B5
:100F40000D01C2F200010870FFE702B080BD00BFD2
:100F500040F2BC11C4F221210120086048F28C113A
:100F6000C4F22121086048F29011C4F221210860E6
:100F700048F29411C4F22121086048F29811C4F299
:100F80002121086048F29C11C4F22121086048F236
:100F9000A011C4F22121086048F2A411C4F2212159
:100FA0000860704780B582B08DF80700FFF7D0FF6A
:100FB0009DF807000146009107283ED80099DFE818
:100FC00001F0040B121920272E3540F2BC11C4F297
:100FD00021210020086030E048F28C11C4F2212168
:100FE0000020086029E048F29011C4F2212100207D
:100FF000086022E048F29411C4F221210020086028
:101000001BE048F29811C4F221210020086014E08E
:1010100048F29C11C4F22121002008600DE048F242
:10102000A011C4F221210020086006E048F2A411BA
:10103000C4F2212100200860FFE702B080BD00005B
:10104000704700BFFFE7FEE7FFE7FEE7FFE7FEE7C9
:10105000FFE7FEE7704700BF704700BF704700BF63
:101060007047000080B541F20002C4F2020210682D
:1010700040F00100106041F20401C4F2020108686E
:101080000023CFF6FF031840086010684FF6FF7387
:10109000CFF6F66318401060106820F480201060CE
:1010A000086820F4FE00086041F20801C4F2020161
:1010B0004FF41F00086000F009F84EF60851CEF218
:1010C00000014FF00060086080BD00BF80B500F0F7
:1010D00093F880BD84B0002003900290019041F20B
:1010E0000400C4F20200006800F00C0003900398B2
:1010F000009040B1FFE7009804280ED0FFE7009869
:10110000082814D056E040F20801C2F2000141F272
:101110000020C0F27A00086056E040F20801C2F2F6
:10112000000141F20020C0F27A0008604CE041F278
:101130000400C4F20200016801F470110291006819
:1011400000F4803001900299022000EB914002905F
:10115000019860B9FFE7029840F60011C0F23D0126
:10116000484340F20801C2F20001086021E041F268
:101170000400C4F202000068800300280CD5FFE7D9
:10118000029840F60011C0F23D01484340F20801C8
:10119000C2F2000108600BE0029841F20021C0F2A7
:1011A0007A01484340F20801C2F200010860FFE7FB
:1011B000FFE709E040F20801C2F2000141F200201D
:1011C000C0F27A000860FFE741F20400C4F20200B6
:1011D0000068C0B2010944F61E10C0F60000405C71
:1011E0000390039A40F20801C2F200010868D0405F
:1011F000086004B0704700BF84B0002003900290E4
:1012000041F20001C4F20201086840F48030086035
:10121000FFE741F20000C4F20200006800F4003071
:101220000290039801300390FFE70299002001909B
:1012300039B9FFE70398B0F5A06018BF012001900D
:10124000FFE70198C0070028E3D1FFE741F2000063
:10125000C4F2020000688003002803D5FFE70120E4
:10126000029002E000200290FFE70298012851D18D
:10127000FFE742F20001C4F20201086840F01000EA
:101280000860086820F003000860086840F0020069
:10129000086041F20401C4F202010091086808608C
:1012A00008680860086840F480600860086820F4F6
:1012B0007C100860086840F4E810086041F2000102
:1012C000C4F20201086840F080700860FFE741F254
:1012D0000000C4F2020000688001002801D4FFE78A
:1012E000F5E741F20401C4F20201086820F00300AE
:1012F0000860086840F002000860FFE741F204005F
:10130000C4F20200006800F00C00082801D0FFE7DA
:10131000F4E700E0FFE704B07047000080B590B04C
:10132000092001210A9102F041FE0A9940F20020B1
:10133000C0F2300002F0AAFA0A990420099002F0E3
:1013400035FE4FF400400190ADF83C0010200B90AA
:101350008DF83F0003200C908DF83E0040F6000011
:10136000C4F201000D900FA90E9102F0FBF8019953
:101370000D9802F00DFA0A990820029002F016FE6C
:10138000029B0B9A0C980E99ADF83C308DF83F20DB
:101390008DF83E0040F60040C4F20100079002F0D4
:1013A000E1F80299079802F0F3F902980A9902F01D
:1013B000FDFD07980B9B0C9A0E99ADF83C308DF80B
:1013C0003F308DF83E2002F0CDF807980B9902F0DF
:1013D000DFF902980A9902F0E9FD07980B9B0C9A35
:1013E0000E994FF0200CCDF80CC0ADF83CC08DF834
:1013F0003F308DF83E2002F0B5F80399079802F0CF
:10140000C7F907980E9940220492ADF83C2002F0EB
:10141000A9F80499079802F0BBF907980E99802261
:101420000592ADF83C2002F09DF80599079802F06E
:10143000AFF907980E994FF480720692ADF83C20F0
:1014400002F090F80699079802F0A2F907980E9911
:101450004FF400720892ADF83C2002F083F8079830
:10146000089902F095F909980A9902F09FFD0B9BE3
:101470000C9A0D980E99ADF83C3048238DF83F300A
:101480008DF83E2002F06EF810B080BD80B58CB0B3
:10149000082003900121069102F088FD4FF40040DE
:1014A0000090ADF82C00482007908DF82F0040F6F2
:1014B0000040C4F2010004900BA9089102F052F818
:1014C0000099049802F064F90398069902F06EFD01
:1014D0000498079A08994FF480430193ADF82C3093
:1014E0008DF82F2002F03EF80199049802F050F98F
:1014F0000398069902F05AFD0498079A08994FF448
:1015000000530293ADF82C308DF82F2002F02AF80A
:101510000299049802F03CF90398069902F046FDFE
:101520000498079A08994FF480530A93ADF82C3029
:101530008DF82F2002F016F804980A9902F028F985
:101540000398069902F032FD0498079A089902233D
:101550000593ADF82C308DF82F2002F003F8049895
:10156000059902F015F90699042002F01FFD07986D
:1015700008990A9AADF82C208DF82F0040F600004B
:10158000C4F20100099001F0EDFF09980A9902F0F8
:10159000FFF80CB080BD00BF80B582B08DF80600AA
:1015A0009DF8060038B1FFE740F20001C2F20001E9
:1015B00001200870FFE740F20000C2F2000000784E
:1015C000002800F0A980FFE748F23C10C4F2212077
:1015D000006820B3FFE748F23810C4F22120006809
:1015E000E8B1FFE748F23410C4F221200068B0B13E
:1015F000FFE748F23010C4F22120006878B1FFE71D
:1016000048F20410C4F22120006840B1FFE740F224
:101610003010C4F22120006800287DD1FFE70A20A5
:1016200001F000FC48F23C10C4F22120006820B315
:10163000FFE748F23810C4F221200068E8B1FFE764
:1016400048F23410C4F221200068B0B1FFE748F23C
:101650003010C4F22120006878B1FFE748F204108E
:10166000C4F22120006840B1FFE740F23010C4F21C
:101670002120006800284ED1FFE740F20001C2F2AD
:1016800000010020087048F23010C4F221200068E8
:1016900020B9FFE704208DF8070079E048F23C10FC
:1016A000C4F22120006820B9FFE701208DF807006F
:1016B0006EE048F23810C4F22120006820B9FFE73C
:1016C00002208DF8070063E048F23410C4F22120B4
:1016D000006820B9FFE703208DF8070058E048F2C2
:1016E0000410C4F22120006820B9FFE705208DF81E
:1016F00007004DE040F23010C4F22120006820B90C
:10170000FFE706208DF8070042E0FFE7FFE7FFE76D
:10171000FFE7FFE7FFE737E048F23C10C4F2212083
:10172000006801282FD1FFE748F23810C4F22120C9
:101730000068012827D1FFE748F23410C4F22120C5
:10174000006801281FD1FFE748F23010C4F22120C1
:101750000068012817D1FFE748F20410C4F22120E5
:10176000006801280FD1FFE740F23010C4F22120B9
:101770000068012807D1FFE740F20001C2F2000132
:1017800001200870FFE7FFE700208DF80700FFE762
:101790009DF8070002B080BD80B582B00220012113
:1017A000009102F01FFC0099042002F0FFFB402092
:1017B000ADF8040018208DF8070003208DF806000E
:1017C00040F60000C4F2010001A901F0CBFE009830
:1017D00040F20041C4F2000100220A8040F2284396
:1017E000C4F2000340F2CF221A8040F22C43C4F22C
:1017F000000340F2CF721A8040F23443C4F2000377
:1018000040F23A721A8040F21843C4F20003782280
:101810001A8040F22042C4F20002108040F21442CA
:10182000C4F2000210808120088002B080BD00BF99
:10183000704700BF81B0ADF80200BDF8020040F271
:101840003441C4F20001088001B0704740F2AD415C
:10185000C2F2000101200870704700BF80B540F25D
:10186000AD41C2F200010020087000F001F880BD17
:1018700080B582B000208DF80700FFE79DF80700D3
:10188000072844DCFFE79DF80700B030C0B2002114
:10189000009100F059F80099084600F055F80099B9
:1018A000102000F051F800F0A9F8782000F000F9BD
:1018B00000F0E0F8402000F0FBF800F0DBF80098C2
:1018C0008DF80600FFE79DF806007F2816DCFFE78D
:1018D0009DF8061040F21500C2F2000000EBC100B6
:1018E0009DF80710405C00F0E3F800F0C3F8FFE754
:1018F0009DF8060001308DF80600E4E700F0A0F83E
:10190000FFE79DF8070001308DF80700B6E702B049
:1019100080BD00BF80B582B08DF807009DF807003C
:1019200028B9FFE7A620002100F00EF8FFE79DF898
:101930000700012805D1FFE7A720002100F004F8E7
:10194000FFE702B080BD00BF80B582B08DF8070010
:101950008DF8061000F052F8782000F0A9F800F099
:1019600089F89DF8060020B1FFE7402000F0A0F8BC
:1019700003E0002000F09CF8FFE700F07BF89DF802
:10198000070000F095F800F075F800F059F802B083
:1019900080BD00BF80B584B08DF80F009DF80F00AA
:1019A00050B9FFE7C82000210291FFF7CDFF02994F
:1019B000A120FFF7C9FFFFE79DF80F0001280AD11A
:1019C000FFE7C02000210191FFF7BEFF0199A02091
:1019D000FFF7BAFFFFE704B080BD00BF81B003206E
:1019E0008DF80300FFE79DF80300411E8DF80310FA
:1019F00008B1FFE7F7E701B0704700BF80B584B0DA
:101A000040F60040C4F2010002904FF48061019161
:101A100001F0BEFE02984FF40061039101F0B8FEA0
:101A2000FFF7DCFF0199029801F0BCFEFFF7D6FF3B
:101A30000298039901F0B6FEFFF7D0FF04B080BD15
:101A400080B582B040F60040C4F2010000904FF42F
:101A50008061019101F0A6FE00984FF4006101F051
:101A600097FEFFF7BBFF0098019901F091FE02B0CD
:101A700080BD00BF80B582B040F60040C4F20100D6
:101A800000904FF4806101F083FEFFF7A7FF0098FC
:101A90004FF40061019101F07BFEFFF79FFF00987A
:101AA000019901F07FFEFFF799FF02B080BD00BFF2
:101AB00080B584B08DF80F0000208DF80E00FFE790
:101AC0009DF80E00072836DCFFE79DF80F000006A2
:101AD000002809D5FFE740F60040C4F201004FF4AA
:101AE000806101F055FE08E040F60040C4F20100BC
:101AF0004FF4806101F056FEFFE7FFF76FFF40F6FD
:101B00000040C4F2010001904FF40061029101F025
:101B10003FFEFFF763FF0198029901F043FE9DF835
:101B20000F0040008DF80F00FFE79DF80E00013018
:101B30008DF80E00C4E704B080BD00BF80B582B050
:101B40008D2000210191FFF7FFFE01991420FFF77E
:101B5000FBFE0199AF20FFF7F7FE02B080BD00BF8A
:101B600080B582B08D2000210191FFF7EDFE019933
:101B70001020FFF7E9FE0199AE20FFF7E5FE02B065
:101B800080BD00BF81B000208DF80300FFE79DF805
:101B90000300072823DCFFE700208DF80200FFE7A1
:101BA0009DF802007F2813DCFFE79DF8021040F249
:101BB0001500C2F2000000EBC1019DF803200020D7
:101BC0008854FFE79DF8020001308DF80200E7E736
:101BD000FFE79DF8030001308DF80300D7E701B05F
:101BE000704700BF82B08DF807008DF806108DF8A1
:101BF00005209DF80600C0088DF804009DF8060039
:101C000000F007008DF803009DF8031001208840C4
:101C10008DF802009DF8050080B1FFE79DF80230C5
:101C20009DF8071040F21500C2F2000000EBC10160
:101C30009DF80420885C1843885422E09DF8071022
:101C400040F21500C2F2000000EBC1029DF8043022
:101C5000D15CC943D1549DF802C09DF8071000EB38
:101C6000C1029DF80430D15C41EA0C01D1549DF8C9
:101C7000071000EBC1019DF80420885CC043885424
:101C8000FFE702B0704700BF80B58CB084460E9865
:101C90008DF82FC08DF82E108DF82D208DF82C305A
:101CA0008DF82B000020099008909DF82D009DF8DC
:101CB0002F10401A07909DF82C009DF82E10401A06
:101CC00006909DF82F0002909DF82E000190079835
:101CD000012803DBFFE7012004900DE0079818B905
:101CE000FFE70020049006E04FF0FF3004900798D3
:101CF00040420790FFE7FFE70698012803DBFFE774
:101D0000012003900DE0069818B9FFE7002003902A
:101D100006E04FF0FF300390079840420690FFE73F
:101D2000FFE707980699884203DDFFE707980590CB
:101D300002E006980590FFE70020ADF82800FFE7D5
:101D4000BDF8280005990131884233DAFFE79DF894
:101D500008009DF804109DF82B20FFF743FF07991A
:101D60000998084409900699089808440890099829
:101D70000599884209DDFFE705990998401A0990FD
:101D80000499029808440290FFE708980599884250
:101D900009DDFFE705990898401A08900399019812
:101DA00008440190FFE7FFE7BDF828000130ADF8D7
:101DB0002800C5E70CB080BD80B586B08DF817004F
:101DC0008DF816108DF81520002004909DF8150050
:101DD0000390FFE7039800FB00F19DF815004043D6
:101DE000B0EB410F00F38380FFE79DF817000499E3
:101DF00008449DF81610039A891AC0B2C9B201228C
:101E00000192FFF7EFFE019A9DF817000499401A1E
:101E10009DF81610039BC91AC0B2C9B2FFF7E2FEC3
:101E2000019A9DF817000499401A9DF81610039B1B
:101E30001944C0B2C9B2FFF7D5FE019A9DF8170048
:101E4000049908449DF81610039B1944C0B2C9B206
:101E5000FFF7C8FE019A9DF81700039908449DF802
:101E60001610049B1944C0B2C9B2FFF7BBFE019A19
:101E70009DF81700039908449DF81610049BC91A91
:101E8000C0B2C9B2FFF7AEFE019A9DF817000399E0
:101E9000401A9DF81610049BC91AC0B2C9B2FFF7C8
:101EA000A1FE019A9DF817000399401A9DF816109B
:101EB000049B1944C0B2C9B2FFF794FE04980130E4
:101EC000049004980399494300FB00119DF8150004
:101ED00000FB101002900298012807DBFFE703982F
:101EE00001380390049801380490FFE772E706B0C8
:101EF00080BD00BF80B584B0844606988DF80FC0C1
:101F00008DF80E108DF80D208DF80C308DF80B002B
:101F10009DF80F008DF805009DF80E008DF8040067
:101F20009DF80C00082804D1FFE706208DF8070073
:101F30000EE09DF80C10C808012202EBD1024B07FD
:101F4000002B18BF1046490848438DF80700FFE7EB
:101F50009DF80D0020388DF8060000208DF80A004D
:101F6000FFE79DF80A009DF80710884280F2B580CF
:101F7000FFE79DF80C00082810D1FFE79DF8060048
:101F800000EB400144F62670C0F6000000EB410073
:101F90009DF80A10405C8DF8080040E09DF80C00A8
:101FA0000C2810D1FFE79DF8060000EB400145F238
:101FB0004E10C0F6000000EB81009DF80A10405C56
:101FC0008DF808002AE09DF80C0010280ED1FFE7DC
:101FD0009DF8061045F2C250C0F6000000EB01105B
:101FE0009DF80A10405C8DF8080016E09DF80C0082
:101FF000182810D1FFE79DF8060000EBC00145F658
:10200000B230C0F6000000EB81009DF80A10405C81
:102010008DF8080000E06AE0FFE7FFE7FFE7002037
:102020008DF80900FFE79DF8090007282BDCFFE782
:102030009DF80800C00748B1FFE79DF80F009DF824
:102040000E109DF80B20FFF7CDFD0BE09DF80F0063
:102050009DF80E109DF80B20B2FA82F25209FFF79C
:10206000C1FDFFE79DF8080040088DF808009DF8C5
:102070000E0001308DF80E00FFE79DF809000130D9
:102080008DF80900CFE79DF80F0001308DF80F00A3
:102090009DF80C00082815D0FFE79DF80F009DF86B
:1020A0000510401A9DF80C10B0EB510F0AD1FFE754
:1020B0009DF805008DF80F009DF8040008308DF89C
:1020C0000400FFE79DF804008DF80E00FFE79DF87F
:1020D0000A0001308DF80A0043E740F2AD40C2F239
:1020E0000000007818B9FFE7FFF7C2FBFFE704B074
:1020F00080BD00BF80B586B0844608988DF817C0B3
:102100008DF8161004928DF80F308DF80E00FFE751
:102110000498017800202029029008DBFFE704984A
:10212000017800207F29B8BF01200290FFE70298C4
:10213000C00738B3FFE79DF817009DF81610049A02
:1021400012789DF80F309DF80EC0EE46CEF800C014
:10215000FFF7D0FE9DF80F00082806D1FFE79DF895
:10216000170006308DF8170008E09DF80F109DF855
:10217000170000EB51008DF81700FFE704980130BD
:102180000490C5E740F2AD40C2F20000007818B9F3
:10219000FFE7FFF76DFBFFE706B080BD82B08DF86B
:1021A00007008DF8061001200090FFE79DF806005B
:1021B000411E8DF8061030B1FFE79DF8071000981A
:1021C00048430090F2E7009802B0704710B586B01F
:1021D0008C468646099808998DF817E08DF816C048
:1021E00004928DF80F308DF80E108DF80D00002040
:1021F0008DF80A009DF80E00082804D1FFE70220A0
:102200008DF80A00FFE700208DF80C00FFE79DF82D
:102210000C009DF80F1088425BDAFFE704980190EC
:102220009DF80F109DF80C00C0430844C1B20A206D
:10223000FFF7B4FF01460198B0FBF1F04CF6CD4139
:10224000CCF6CC41A0FB0121C90801EB8101A0EB38
:1022500041008DF80B009DF80B00C0B9FFE79DF819
:1022600017209DF80E309DF80A0000EB53009DF8F2
:102270000C1000FB01209DF816109DF80D20EC4677
:10228000CCF80020C0B23022FFF734FE1AE09DF8EF
:1022900017209DF80E309DF80A0000EB53009DF8C2
:1022A0000C1000FB01209DF816109DF80B20303219
:1022B0009DF80DC0EE46CEF800C0C0B2D2B2FFF716
:1022C00019FEFFE7FFE79DF80C0001308DF80C00C8
:1022D0009DE740F2AD40C2F20000007818B9FFE778
:1022E000FFF7C6FAFFE706B010BD00BF80B584B0A7
:1022F000844606988DF80FC08DF80E108DF80D20CD
:102300008DF80C308DF80B009DF80F008DF808004B
:102310009DF80E008DF807009DF80C10C8080122EA
:1023200002EBD1024B07002B18BF10464843ADF813
:1023300002000020ADF80400FFE7BDF80400BDF87E
:102340000210884280F2AB80FFE79DF80C00102855
:102350000ED1FFE79DF80D1044F63E10C0F60000C8
:1023600000EB4110BDF80410405C8DF809003EE020
:102370009DF80C00182810D1FFE79DF80D0000EB28
:10238000C00144F65E40C0F6000000EBC100BDF89D
:102390000410405C8DF8090028E09DF80C0020280E
:1023A0000ED1FFE79DF80D1044F6A640C0F60000E0
:1023B00000EBC110BDF80410405C8DF8090014E07A
:1023C0009DF80C0040280ED1FFE79DF80D1044F653
:1023D0002650C0F6000000EB4120BDF80410405C20
:1023E0008DF8090000E064E0FFE7FFE7FFE7002069
:1023F0008DF80A00FFE79DF80A0007282BDCFFE7AD
:102400009DF80900C00748B1FFE79DF80F009DF84F
:102410000E109DF80B20FFF7E5FB0BE09DF80F0079
:102420009DF80E109DF80B20B2FA82F25209FFF7C8
:10243000D9FBFFE79DF8090040088DF809009DF8D9
:102440000E0001308DF80E00FFE79DF80A00013004
:102450008DF80A00CFE79DF80F0001308DF80F00CE
:102460009DF80F009DF80810401A9DF80C10884246
:102470000AD1FFE79DF808008DF80F009DF80700CE
:1024800008308DF80700FFE79DF807008DF80E0073
:10249000FFE7BDF804000130ADF804004DE740F25D
:1024A000AD40C2F20000007818B9FFE7FFF7E0F98D
:1024B000FFE704B080BD00BF80B584B08DF80F0089
:1024C0008DF80E108DF80D2000208DF80A008DF883
:1024D0000900FFE79DF8090088B9FFE79DF80A2089
:1024E0009DF80D0069460860802018211023FFF731
:1024F000FDFE9DF80A0001308DF80A00FFE79DF807
:102500000A009DF80F10884247D1FFE700208DF8A0
:102510000800FFE79DF808009DF80E10B0EB011FC2
:1025200037DAFFE701208DF80C00FFE79DF80C007B
:102530008F2825DCFFE700208DF80B00FFE79DF8D2
:102540000B00072815DCFFE79DF80C1040F2150082
:10255000C2F2000000EBC1009DF80B208118805CE6
:1025600001F8080CFFE79DF80B0001308DF80B0017
:10257000E5E7FFE79DF80C0001308DF80C00D5E78A
:10258000FFF776F9FFE79DF8080001308DF80800A5
:10259000C0E700208DF80A00FFE79DF80900013030
:1025A0008DF809009DF80900102804D1FFE70020EC
:1025B0008DF80900FFE701208DF80C00FFE79DF87A
:1025C0000C008F2825DCFFE700208DF80B00FFE7CB
:1025D0009DF80B00072815DCFFE79DF80C1040F272
:1025E0001500C2F2000000EBC1009DF80B2081181D
:1025F000805C01F8080CFFE79DF80B0001308DF8B6
:102600000B00E5E7FFE79DF80C0001308DF80C00AA
:10261000D5E7FFF72DF95DE780B584B084460798CC
:10262000DDF818E08DF80FC08DF80E108DF80D2034
:102630008DF80C308DF80B000020ADF808009DF8E7
:102640000F108DF803109DF80E108DF802109DF8F4
:102650000C30D908012202EBD3025B07002B18BF14
:1026600011468DF80C108DF80600FFE79DF8060066
:102670009DF80C10884275DAFFE700208DF80700FE
:10268000FFE79DF807009DF80D10884263DAFFE729
:102690000698BDF80810405C8DF80500BDF80800EC
:1026A0000130ADF8080000208DF80400FFE79DF828
:1026B000040007282BDCFFE79DF80500C00748B1A0
:1026C000FFE79DF80F009DF80E109DF80B20FFF717
:1026D00089FA0BE09DF80F009DF80E109DF80B2075
:1026E000B2FA82F25209FFF77DFAFFE79DF8050082
:1026F00040088DF805009DF80E0001308DF80E00A1
:10270000FFE79DF8040001308DF80400CFE79DF845
:102710000F0001308DF80F009DF80F009DF8031099
:10272000401A9DF80D1088420AD1FFE79DF803007A
:102730008DF80F009DF8020008308DF80200FFE7C9
:102740009DF802008DF80E00FFE79DF807000130AC
:102750008DF8070095E7FFE79DF8060001308DF83A
:10276000060083E740F2AD40C2F20000007818B9DD
:10277000FFE7FFF77DF8FFE704B080BD80B588B0C4
:102780000820012101F012FC4FF400600090ADF828
:102790001C00142005908DF81F0003208DF81E00EA
:1027A00040F60040C4F20100029007A9019100F038
:1027B000D9FE0099029800F0EBFF019902984FF4BE
:1027C00080620392ADF81C2000F0CCFE02980399C1
:1027D00000F0DEFFC820049000F024FBAE200021B2
:1027E0000691FFF7B1F806990846FFF7ADF806998C
:1027F0001020FFF7A9F806994020FFF7A5F80699E1
:102800008120FFF7A1F80699CF20FFF79DF80699E0
:10281000A120FFF799F804980699FFF795F8069913
:10282000A620FFF791F80699A820FFF78DF80699E2
:102830003F20FFF789F80699D320FFF785F806991E
:102840000846FFF781F80699D520FFF77DF806992D
:102850008020FFF779F80699D920FFF775F80699D7
:10286000F120FFF771F80699DA20FFF76DF8069965
:102870001220FFF769F80699DB20FFF765F8069943
:102880003020FFF761F806992020FFF75DF80699E0
:102890000220FFF759F806998D20FFF755F80598A3
:1028A0000699FFF751F8FFF76DF90699AF20FFF78A
:1028B0004BF808B080BD00BF80B586B0FFF762F965
:1028C00069460120029008600022039210230593BC
:1028D00010461146FFF70AFD029A0399059B6846C8
:1028E00002601846FFF702FD02980399059B6A46AD
:1028F0001060202001900F22FFF7F8FC0298039946
:10290000059B6A461060302004901A46FFF7EEFCE3
:1029100002980399059B6A46106040203A22FFF70F
:10292000E9FA02980399059B6A461060502011222B
:10293000FFF7DCFC02980399059B6A461060602053
:102940000E22FFF7D3FC02990398059B6A4611609B
:1029500046F6B512C0F600021946FFF7CBFB019907
:10296000029A0398059BEC46CCF8002046F6A61286
:10297000C0F60002FFF7BEFB029A03980499059B7C
:10298000EC46CCF8002046F6C412C0F60002FFF771
:10299000B1FB40F2AD40C2F20000007818B9FFE789
:1029A000FEF766FFFFE706B080BD00BF80B58AB0C6
:1029B000FFF7E8F869460120069008602820039098
:1029C00000210191122210230993FFF78FFC019936
:1029D0000698099B6A461060382004901322FFF77E
:1029E00085FC01990698099B6A461060482007906B
:1029F00014220292FFF77AFC01990698099B6A4615
:102A0000106058201522FFF771FC01990698099B68
:102A10006A46106068201622FFF768FC0298069943
:102A2000099B6A46116046F6D312C0F600021821CF
:102A30000591FFF75FFB03980699099B6A461160B1
:102A4000302108911722FFF751FC0498059ADDF810
:102A500018C00899099BEE46CEF800C0FFF746FC67
:102A6000069A07980899099BEC46CCF800203A2270
:102A7000FFF740FA40F2AD40C2F20000007818B90A
:102A8000FFE7FEF7F5FEFFE70AB080BD80B586B030
:102A9000FFF778F86946012002900860002203924F
:102AA0001023059310461146FFF720FC029A039964
:102AB000059B684602601846FFF718FC02980399C8
:102AC000059B6A461060202001900F22FFF70EFC44
:102AD00002980399059B6A461060302004901A46BC
:102AE000FFF704FC02980399059B6A46106040209A
:102AF0003A22FFF7FFF902980399059B6A46106096
:102B000050201122FFF7F2FB02980399059B6A46B9
:102B1000106060200E22FFF7E9FB02990398059BE5
:102B20006A46116046F68812C0F600021946FFF7A1
:102B3000E1FA0199029A0398059BEC46CCF8002033
:102B400046F69712C0F60002FFF7D4FA029A0398ED
:102B50000499059BEC46CCF8002046F6A612C0F678
:102B60000002FFF7C7FA40F2AD40C2F20000007861
:102B700018B9FFE7FEF77CFEFFE706B080BD000056
:102B800080B584B008200121029101F00FFA02986B
:102B9000ADF80C0010208DF80F0003208DF80E000A
:102BA00040F60040C4F20100019003A900F0DAFCF5
:102BB0000198029900F0F6FD04B080BD80B540F6A2
:102BC0000040C4F20100012100F0E2FD80BD00BF21
:102BD00080B540F60040C4F20100012100F0E2FDA2
:102BE00080BD000080B586B004200290012101F074
:102BF000DDF980200190ADF8140010208DF8170049
:102C000003208DF8160040F60000C4F20100039086
:102C100005A9049100F0A6FC0199039800F0C2FDFB
:102C2000029A039804992023ADF814308DF81720E8
:102C300000F098FC06B080BD80B586B00020029000
:102C4000049040F60000C4F2010000908021019140
:102C500000F09EFD0F2000F09FF80098019900F011
:102C6000A1FD02980490FFE740F60000C4F20100C5
:102C7000202100F049FD90B9FFE7012000F08CF819
:102C8000049801300490049841F28931884205D3B8
:102C9000FFE740F2E730ADF8160059E0E4E7002026
:102CA0000490FFE740F60000C4F20100202100F08C
:102CB0002BFD012819D1FFE7012000F06DF80498E1
:102CC00001300490049847F2315188420CD3FFE759
:102CD00040F20201C2F200014FF4C870088040F2D5
:102CE000E730ADF8160033E0DCE7049800EB0010A5
:102CF00044F6D351C1F26201A0FB01108009ADF886
:102D00000E00BDF80E00012804D8FFE70220ADF840
:102D10000E00FFE7BDF80E00B0F5C87F05D9FFE74C
:102D20004FF4C870ADF80E00FFE7BDF80E0040F29A
:102D30000201C2F200010A8810444008ADF80E00FA
:102D4000BDF80E000880BDF80E00ADF81600FFE7D4
:102D5000BDF8160006B080BD80B56FF0040000F02D
:102D60004FFB40F20800C2F2000000684DF683619C
:102D7000C4F21B31A0FB0110410D40F2A040C2F291
:102D80000000017000784FF47A71484340F29E4190
:102D9000C2F20001088080BD83B00290029840F228
:102DA000A041C2F20001097848434EF21401CEF26C
:102DB000000108604EF21801CEF200010020086008
:102DC0004EF21001CEF20001086840F001000860E8
:102DD000FFE74EF21000CEF2000000680190FFE71E
:102DE00000209DF80410C907009031B1FFE79DF85D
:102DF0000610012088430090FFE70098C0070028D4
:102E0000E7D1FFE74EF21001CEF20001086820F092
:102E1000010008604EF21801CEF2000100200860A7
:102E200003B0704783B0ADF80A00BDF80A0040F265
:102E30009E41C2F20001098848434EF21401CEF2CD
:102E4000000108604EF21801CEF200010020086077
:102E50004EF21001CEF20001086840F00100086057
:102E6000FFE74EF21000CEF2000000680190FFE78D
:102E700000209DF80410C907009031B1FFE79DF8CC
:102E80000610012088430090FFE70098C007002843
:102E9000E7D1FFE74EF21001CEF20001086820F002
:102EA000010008604EF21801CEF200010020086017
:102EB00003B0704780B58EB00D90042000900121C2
:102EC000069101F073F806994FF4804001F06EF816
:102ED00018208DF833004FF40070ADF83000032057
:102EE00001908DF8320040F60000C4F2010002901B
:102EF0000CA9039100F036FB009B019A02980399FC
:102F00008DF833304FF48063ADF830308DF83220D7
:102F100000F028FB0D9808900020ADF82C000C2143
:102F2000ADF82A10ADF82800ADF82600ADF8240061
:102F300043F60000C4F20100049008A901F064F90E
:102F40000498069901F04EFA0498069A40F2255129
:102F5000059101F05DFA04980599069A01F058FA76
:102F60004FF4A06000F0B8F9069825218DF81C10E8
:102F70008DF81F008DF81D008DF81E0007A800F0C9
:102F8000B9F90EB080BD00BF80B58EB00D900420A1
:102F900000900121059101F009F805994FF40030E6
:102FA00001F020F8009818218DF83310ADF83000AA
:102FB000032001908DF8320040F60000C4F20100B9
:102FC00002900CA9039100F0CDFA009B019A02989F
:102FD00003998DF833300823ADF830308DF8322066
:102FE00000F0C0FA0D98089000200690ADF82C0073
:102FF0000C21ADF82A10ADF82800ADF82600ADF888
:10300000240044F20040C4F20000049008A901F03A
:10301000FBF80498059901F0E5F90498059A40F247
:10302000255101F0F5F90599069826228DF81C2006
:103030008DF81F108DF81D008DF81E0007A800F0F8
:1030400059F90EB080BD00BF80B584B003900291E5
:10305000ADF806200020ADF80400FFE7BDF804003D
:10306000BDF80610884216DAFFE7039802994A1C59
:103070000292097801F092FAFFE70398402101F0EB
:1030800065FB08B9FFE7F8E7FFE7BDF8040001308A
:10309000ADF80400E2E704B080BD00BF82B001904B
:1030A000009102B0704700BF80B540F2B440C2F258
:1030B0000000402101F0FFFB40F2F441C2F20001A8
:1030C0000020088080BD00BF81B040F2F440C2F211
:1030D0000000008820B9FFE701208DF8030023E0FD
:1030E00040F2F440C2F20000008840F2F641C2F221
:1030F00000010988884209D1FFE740F2F441C2F299
:103100000001002008808DF803000DE040F2F4403B
:10311000C2F20000008840F2F641C2F200010880CD
:1031200001208DF80300FFE79DF8030001B0704710
:1031300080B540F2F840C2F20000402101F0BBFB34
:1031400040F23851C2F200010020088080BD00BF6B
:1031500081B040F23850C2F20000008820B9FFE789
:1031600001208DF8030023E040F23850C2F2000045
:10317000008840F23A51C2F200010988884209D120
:10318000FFE740F23851C2F20001002008808DF8BC
:1031900003000DE040F23850C2F20000008840F217
:1031A0003A51C2F20001088001208DF80300FFE7C8
:1031B0009DF8030001B0704780B582B043F600006F
:1031C000C4F2010040F2255101F0F4FA012819D1AE
:1031D000FFE743F60000C4F20100019001F0EAF9B4
:1031E0000146019840F21202C2F20002117040F250
:1031F0001302C2F200020121117040F2255101F0C8
:1032000031FBFFE702B080BD80B544F20040C4F25C
:10321000000040F2255101F0CDFA40B3FFE740F243
:103220003850C2F200000088402807D3FFE740F280
:103230003851C2F2000100200880FFE744F2044048
:10324000C4F20000008840F23853C2F200031A882A
:10325000511C198040F2F841C2F20001885444F236
:103260000040C4F20000202101F092FAFFE780BD87
:1032700081B040F21300C2F20000007801280AD1A8
:10328000FFE740F21301C2F20001002008700120A4
:103290008DF8030003E000208DF80300FFE79DF8A0
:1032A000030001B0704700BF40F21200C2F20000FC
:1032B000007870470648804706480047FEE7FEE76B
:1032C000FEE7FEE7FEE7FEE7FEE7FEE7FEE7FEE7D6
:1032D00065100008ED00000881B000900098002102
:1032E000C0F2FA5108434EF60C51CEF200010860CC
:1032F00001B0704784B003900020029001900F202D
:1033000000900398C078B8B3FFE74EF60C50CEF2A9
:1033100000000068C043C0F3022002900298C0F190
:103320000400019000980299C840009003984078EA
:103330000199884002900398807800990140029892
:1033400008430290029800010290029803990978BC
:103350004EF20042CEF2000288540398027802F046
:103360001F01012088401C2101EAD2014EF2001207
:10337000CEF2000288500EE00398027802F01F019E
:10338000012088401C2101EAD2014EF28012CEF2C7
:1033900000028850FFE704B0704700BF82B0019080
:1033A0000091019800994FF68072C1F6FF721140AA
:1033B00008434EF60851CEF20001086002B0704793
:1033C00081B08DF803008DF802109DF8020050B115
:1033D000FFE79DF803204EF61051CEF20001086879
:1033E0001043086009E09DF803204EF61051CEF21C
:1033F0000001086890430860FFE701B0704700BF14
:1034000081B000900098042809D1FFE74EF2100126
:10341000CEF20001086840F00400086008E04EF2B7
:103420001001CEF20001086820F004000860FFE7F8
:1034300001B0704780B588B00790079840F600014A
:10344000C4F2010188420AD1FFE70420069001215D
:1034500000F0E4FD0698002100F0E0FD72E007981E
:1034600040F60041C4F2010188420AD1FFE708207A
:103470000590012100F0D2FD0598002100F0CEFD5D
:103480005FE0079841F20001C4F2010188420AD1CD
:10349000FFE710200490012100F0C0FD04980021F6
:1034A00000F0BCFD4CE0079841F20041C4F201017C
:1034B00088420AD1FFE720200390012100F0AEFDF1
:1034C0000398002100F0AAFD39E0079841F60001B9
:1034D000C4F2010188420AD1FFE740200290012195
:1034E00000F09CFD0298002100F098FD26E007986E
:1034F00041F60041C4F2010188420AD1FFE7802071
:103500000190012100F08AFD0198002100F086FD64
:1035100013E0079842F20001C4F2010188420BD186
:10352000FFE74FF480700090012100F077FD0098D4
:10353000002100F073FDFFE7FFE7FFE7FFE7FFE78C
:10354000FFE7FFE708B080BD80B582B0012101919F
:10355000084600F063FD0198002100F05FFD02B015
:1035600080BD00BF88B007900691002005900490B0
:1035700003900290019000900698C07800F00F0030
:1035800005900698C078C006002806D5FFE7069883
:103590008178059808430590FFE706980078002891
:1035A0004BD0FFE707980068019000200390FFE7E9
:1035B000039807283DD8FFE703990120884002902F
:1035C000069800880299084004900498029988425D
:1035D0002AD1FFE703988000029002990F208840CB
:1035E000009000990198884301900598029900FA8B
:1035F00001F10198084301900698C078282806D167
:10360000FFE7039901208840079948610BE006987D
:10361000C078482806D1FFE7039901208840079920
:103620000861FFE7FFE7FFE7FFE70398013003903A
:10363000BEE7019807990860FFE706980088B0F593
:10364000807F50DBFFE707984068019000200390DF
:10365000FFE70398072842D8FFE7039800F1080125
:103660000120884002900698008802990840049042
:103670000498029988422DD1FFE7039880000290B8
:1036800002990F208840009000990198884301908A
:103690000598029900FA01F10198084301900698F3
:1036A000C078282808D1FFE7039800F1080101201D
:1036B000884007994861FFE70698C078482808D1F4
:1036C000FFE7039800F1080101208840079908618D
:1036D000FFE7FFE7FFE7039801300390B9E70198A0
:1036E00007994860FFE708B0704700BF81B00090BD
:1036F00000994FF6FF7008800099022088700099A9
:103700000420C87001B0704782B00190ADF802107B
:1037100000208DF8010001988068BDF80210084271
:1037200004D0FFE701208DF8010003E000208DF8B0
:103730000100FFE79DF8010002B0704781B00090E2
:103740000098806880B201B0704700BF82B00190DD
:10375000ADF8021000208DF801000198C068BDF896
:103760000210084204D0FFE701208DF8010003E0B9
:1037700000208DF80100FFE79DF8010002B07047BE
:1037800081B000900098C06880B201B0704700BF5F
:1037900082B00190ADF80210BDF8020001990861F5
:1037A00002B0704782B00190ADF80210BDF802007F
:1037B0000199486102B0704782B00190ADF80210E3
:1037C0008DF801209DF8010028B1FFE7BDF8020047
:1037D0000199086104E0BDF8020001994861FFE722
:1037E00002B0704782B00190ADF80210BDF802003F
:1037F0000199C86002B0704783B00290ADF806101E
:103800004FF480300090BDF80610009808430090F7
:10381000009802998861BDF80600029988610098B5
:1038200002998861029880690090029880690090EE
:1038300003B0704782B08DF807008DF806100020A5
:1038400000900021C4F201010868009000984FF632
:103850008072104000909DF80720009840EA021006
:1038600000909DF806200098104300900098086092
:1038700002B0704781B08DF803009DF803001C2151
:10388000C4F22021086001B0704700BF86B00590E7
:103890008DF81310002003900290019000909DF885
:1038A00017000006002806D5FFE71C20C4F201001F
:1038B0000068019005E00420C4F201000068019056
:1038C000FFE70598C0F303400090BDF81400039093
:1038D000059800F44010B0F5401F0CD1FFE70198A7
:1038E00020F0706001900421C4F20101086820F00A
:1038F0007060086023E09DF81600C00600280DD512
:10390000FFE70099032088400290029901988843BC
:103910000190019840F0706001900FE00398059AC3
:103920006FF00F0101EA524100FA01F1019888435A
:103930000190019840F070600190FFE7FFE79DF86B
:10394000130060B1FFE70398059A6FF00F0101EAD9
:10395000524100FA01F1019808430190FFE79DF8F8
:1039600017000006002806D5FFE701981C21C4F2C5
:103970000101086005E001980421C4F2010108601A
:10398000FFE706B0704700BF82B08DF807008DF8E2
:103990000610002000909DF8060000F00300810052
:1039A0000F2088400090009B9DF8060000F0FC016D
:1039B0000822C4F201028858984388509DF80710E5
:1039C0009DF8060000F003039B0001FA03F300F0EA
:1039D000FC0188581843885002B0704781B00090AD
:1039E0000098DC21C4F22021086001B0704700007B
:1039F00041F20002C4F20202106840F001001060BF
:103A000041F20401C4F2020108680023CFF6FF036B
:103A10001840086010684FF6FF73CFF6F663184041
:103A20001060106820F480201060086820F4FE0008
:103A3000086041F20801C4F202014FF41F0008605F
:103A4000704700BF82B0019041F20001C4F2020150
:103A5000086820F480300860086820F4802008603E
:103A600001980090B0F5803F05D0FFE70098B0F5D1
:103A7000802F09D011E041F20001C4F20201086870
:103A800040F48030086009E041F20001C4F2020114
:103A9000086840F4A020086000E0FFE702B070472B
:103AA00080B584B0002003908DF80B008DF80A00DB
:103AB000FFE7312000F02AF88DF80A000398013062
:103AC0000390FFE703990020B1F5A06F019007D0A4
:103AD000FFE79DF80A00B0FA80F040090190FFE787
:103AE0000198C0070028E4D1FFE7312000F00EF86C
:103AF00020B1FFE701208DF80B0003E000208DF8D6
:103B00000B00FFE79DF80B0004B080BD84B08DF87A
:103B10000F000020029001908DF803009DF80F0027
:103B2000400902900298012807D1FFE741F2000006
:103B3000C4F202000068019012E00298022807D146
:103B4000FFE741F22000C4F202000068019006E0A5
:103B500041F22400C4F2020000680190FFE7FFE791
:103B60009DF80F0000F01F00029001980299C840D4
:103B7000C00720B1FFE701208DF8030003E000201B
:103B80008DF80300FFE79DF8030004B0704700BF05
:103B900082B08DF807000020009041F20001C4F2CD
:103BA000020108680090009820F0F80000909DF84D
:103BB0000720009840EAC20000900098086002B018
:103BC000704700BF81B08DF803009DF8030000210D
:103BD000C4F24221086001B0704700BF83B0029078
:103BE00001910020009041F20401C4F20201086832
:103BF0000090009820F47C1000900298019A0243F3
:103C00000098104300900098086003B0704700BF10
:103C100081B08DF803009DF803006021C4F24221B9
:103C2000086001B0704700BF82B001900020009092
:103C300041F20401C4F2020108680090009820F0EB
:103C400003000090019A00981043009000980860CB
:103C500002B0704741F20400C4F20200006800F0B4
:103C60000C00704782B001900020009041F20401E6
:103C7000C4F2020108680090009820F0F000009063
:103C8000019A0098104300900098086002B07047B5
:103C900082B001900020009041F20401C4F20201C0
:103CA00008680090009820F4E0600090019A009865
:103CB000104300900098086002B0704782B00190F5
:103CC0000020009041F20401C4F202010868009053
:103CD000009820F460500090019A009840EAC200D9
:103CE00000900098086002B0704700BF81B08DF866
:103CF00003008DF802109DF8020050B1FFE79DF817
:103D0000032041F20901C4F202010878104308704F
:103D100009E09DF8032041F20901C4F2020108788C
:103D200090430870FFE701B0704700BF81B000907A
:103D30000098D821C4F24221086001B0704700BF4A
:103D400082B001900020009041F20401C4F202010F
:103D500008680090009820F440400090019A009874
:103D6000104300900098086002B0704782B08DF850
:103D7000070041F22001C4F202010020087008701F
:103D80009DF8070001460091012804D0FFE7009844
:103D9000042807D00DE041F22001C4F20201012005
:103DA000087007E041F22001C4F20201052008700A
:103DB00000E0FFE702B0704781B08DF803009DF886
:103DC000030040F28041C4F24221086001B0704714
:103DD00081B00090009A41F22001C4F2020108680B
:103DE0001043086001B0704781B08DF803009DF862
:103DF000030040F23C41C4F24221086001B0704728
:103E000086B005900020049003900290019041F24A
:103E10000400C4F20200006800F00C000490049852
:103E2000009040B1FFE7009804280BD0FFE700980E
:103E300008280ED047E0059941F20020C0F27A0030
:103E4000086047E0059941F20020C0F27A0008605E
:103E500040E041F20400C4F20200016801F4701174
:103E60000391006800F4803002900399022000EB77
:103E700091400390029848B9FFE7039840F600117B
:103E8000C0F23D014843059908601BE041F204007F
:103E9000C4F2020000688003002809D5FFE70398F8
:103EA00040F60011C0F23D0148430599086008E062
:103EB000039841F20021C0F27A0148430599086055
:103EC000FFE7FFE706E0059941F20020C0F27A0023
:103ED0000860FFE741F20400C4F20200016801F04B
:103EE000F0010491049909090491049A44F62E11F1
:103EF000C0F600018A5C0192059B1A68DDF804C0D7
:103F000022FA0CF25A60026802F4E0620492049A07
:103F1000120A0492049A8A5C0192059B5A68DDF8A1
:103F200004C022FA0CF29A60026802F46052049211
:103F3000049AD20A0492049A895C0191059A516804
:103F4000019BD940D160006800F44040049004987F
:103F5000800B0490049944F61A10C0F60000405CEF
:103F600001900599C868019AB0FBF2F0086106B0AB
:103F7000704700BF82B001908DF803109DF80300D8
:103F800048B1FFE7019A41F21401C4F20201086846
:103F90001043086008E0019A41F21401C4F20201E2
:103FA000086890430860FFE702B0704782B0019054
:103FB0008DF803109DF8030048B1FFE7019A41F224
:103FC0001801C4F2020108681043086008E0019A71
:103FD00041F21801C4F20201086890430860FFE74B
:103FE00002B0704782B001908DF803109DF8030075
:103FF00048B1FFE7019A41F21C01C4F202010868CE
:104000001043086008E0019A41F21C01C4F2020169
:10401000086890430860FFE702B0704782B00190E3
:104020008DF803109DF8030048B1FFE7019A41F2B3
:104030000C01C4F2020108681043086008E0019A0C
:1040400041F20C01C4F20201086890430860FFE7E6
:1040500002B0704782B001908DF803109DF8030004
:1040600048B1FFE7019A41F21001C4F20201086869
:104070001043086008E0019A41F21001C4F2020105
:10408000086890430860FFE702B0704781B08DF880
:1040900003009DF8030040F24041C4F24221086051
:1040A00001B0704781B08DF803009DF803004C21EA
:1040B000C4F24221086001B0704700BF81B08DF8A2
:1040C00003009DF8030041F20701C4F202010870E9
:1040D00001B0704741F22401C4F20201086840F0C7
:1040E00080700860704700BF81B08DF80300002029
:1040F0008DF8020041F20800C4F2020000689DF849
:104100000310084204D0FFE701208DF8020003E00D
:1041100000208DF80200FFE79DF8020001B0704713
:1041200081B08DF803009DF8030041F20A01C4F24A
:104130000201087001B0704780B586B005900598FF
:1041400043F60001C4F2010188420BD1FFE74FF4AE
:10415000804004900121FFF761FF04980021FFF7E0
:104160005DFF4FE0059844F20041C4F2000188422F
:104170000BD1FFE74FF4003003900121FFF76AFFF6
:1041800003980021FFF766FF3BE0059844F6000125
:10419000C4F2000188420BD1FFE74FF48020029067
:1041A0000121FFF757FF02980021FFF753FF27E097
:1041B000059844F60041C4F2000188420BD1FFE7A4
:1041C0004FF4002001900121FFF744FF01980021E6
:1041D000FFF740FF13E0059845F20001C4F200012B
:1041E00088420BD1FFE74FF4801000900121FFF7C8
:1041F00031FF00980021FFF72DFFFFE7FFE7FFE702
:10420000FFE7FFE706B080BD80B58CB00B900A9148
:104210000020099008900790069005900A988089E0
:1042200008B1FFE7FFE70B9805900B98008A09900B
:1042300009984CF6FF71084009900A98C1880998BE
:104240000843099009980B9908820B988089099076
:1042500009984EF6F311084009900A9988880A894E
:1042600010434989014309980843099009980B991B
:1042700088810B98808A099009984FF6FF41084081
:1042800009900A98818909980843099009980B991F
:1042900088826846FFF7B4FD059843F60001C4F232
:1042A0000101884203D1FFE70398089002E00298D9
:1042B0000890FFE70B988089000400280AD5FFE7E3
:1042C0000898192148430A9909684900B0FBF1F0A0
:1042D000079009E00898192148430A99096889005C
:1042E000B0FBF1F00790FFE7079848F21F51C5F2C5
:1042F000EB11A0FB01016FF00F0000EA51000990E3
:10430000079A09980009642100FB112006900B9878
:1043100080890004002810D5FFE70699322000EBC1
:10432000C10048F21F51C5F2EB11A0FB0110C0F310
:1043300042110998084309900FE00699322000EBDA
:10434000011048F21F51C5F2EB11A0FB0110C0F3A0
:104350004311099808430990FFE709980B990881D0
:104360000CB080BD81B0009000994FF416500860E9
:104370000099002088800099C88000990881009ADF
:104380000C2151810099888101B0704783B002905F
:104390000191002000900298008A009000984FF24E
:1043A000FF0108400090019908884A8810438A88D4
:1043B0001043C9880143009808430090009802996F
:1043C000088203B0704700BF81B0009000990020C0
:1043D000088000994880009988800099C88001B0C1
:1043E000704700BF82B001908DF803109DF8030064
:1043F00030B1FFE70199888940F40050888105E0D9
:104400000199888920F400508881FFE702B0704745
:1044100086B00590ADF812108DF8112000200390A1
:10442000029001900090BDF8120040F66A11884297
:1044300001D1FFE7FFE7059800909DF812004009C1
:104440000390BDF8120000F01F00029002990120B5
:10445000884001900398012804D1FFE700980C30B0
:1044600000900CE00398022804D1FFE70098103078
:10447000009003E0009814300090FFE7FFE79DF8FC
:10448000110030B1FFE7019A0099086810430860F5
:1044900005E0019A0099086890430860FFE706B0BC
:1044A000704700BF82B00190ADF802108DF8012076
:1044B0009DF8010038B1FFE7BDF802200199888A14
:1044C0001043888206E0BDF802200199888A904353
:1044D0008882FFE702B0704782B001908DF8031028
:1044E0000199088A20F00F0008829DF803200199A5
:1044F000088A1043088202B0704700BF82B0019062
:10450000ADF802100199888920F400608881BDF817
:104510000220019988891043888102B0704700BF4A
:1045200082B001908DF803109DF8030030B1FFE7D1
:104530000199888940F00200888105E00199888905
:1045400020F002008881FFE702B0704782B001903E
:10455000ADF802100199088A20F020000882BDF809
:1045600002200199088A1043088202B0704700BFF8
:1045700082B001908DF803109DF8030030B1FFE781
:104580000199088A40F48040088205E00199088A70
:1045900020F480400882FFE702B0704782B00190AB
:1045A000ADF80210BDF802006FF35F20019988801A
:1045B00002B0704781B00090009880886FF35F2050
:1045C00001B0704781B000900099888940F00100E7
:1045D000888101B0704700BF82B001908DF8031050
:1045E0000199088BC0B208839DF803200199088BBC
:1045F00040EA0220088302B0704700BF82B00190F9
:104600008DF803100199088B20F0FF0008839DF8B6
:1046100003200199088B1043088302B0704700BF44
:1046200082B001908DF803109DF8030030B1FFE7D0
:104630000199888A40F02000888205E00199888AE3
:1046400020F020008882FFE702B0704782B001901E
:104650008DF803109DF8030030B1FFE70199888AB7
:1046600040F01000888205E00199888A20F010004F
:104670008882FFE702B0704782B001908DF8031086
:104680009DF8030030B1FFE70199888A40F00800E7
:10469000888205E00199888A20F008008882FFE777
:1046A00002B0704782B001908DF803109DF80300AE
:1046B00030B1FFE70199888940F40040888105E026
:1046C000019988896FF3DF308881FFE702B0704776
:1046D00082B001908DF803109DF8030030B1FFE720
:1046E0000199888A40F40060888205E00199888AEF
:1046F00020F400608882FFE702B0704782B001902A
:10470000ADF802100199888A20F004008882BDF873
:1047100002200199888A1043888202B0704700BF46
:1047200082B001908DF803109DF8030030B1FFE7CF
:104730000199888A40F00200888205E00199888A00
:1047400020F002008882FFE702B0704782B001903B
:10475000ADF8021000208DF80100BDF80200B0F5A0
:10476000007F01D1FFE7FFE701980088BDF8021044
:104770000840000420B1FFE701208DF8010003E0AC
:1047800000208DF80100FFE79DF8010002B070479E
:1047900082B00190ADF80210BDF80200800500283B
:1047A00001D5FFE7FFE7BDF80200C043019908808B
:1047B00002B0704786B00590ADF81210002003904B
:1047C000029001908DF80300BDF8120040F66A11C6
:1047D000884201D1FFE7FFE79DF8120040090190F0
:1047E000BDF8120000F01F000290029901208840DD
:1047F00002900198012806D1FFE705988189029867
:104800000840029010E00198022806D1FFE70598C1
:10481000018A02980840029005E00598818A029872
:1048200008400290FFE7FFE79DF81300039003990B
:104830000120884003900598018803980840039060
:10484000029838B1FFE7039820B1FFE701208DF807
:10485000030003E000208DF80300FFE79DF803004C
:1048600006B0704783B00290ADF806100020ADF896
:104870000400ADF80200BDF8060040F66A11884257
:1048800001D1FFE7FFE79DF80700ADF80400BDF890
:10489000041001208840ADF80200BDF80200C043BA
:1048A0000299088003B07047D2B201E000F8012BF2
:1048B000491EFBD270470022F6E710B513460A46A0
:1048C00004461946FFF7F0FF204610BD1CB5094805
:1048D0000090094801900546009C06E0E06840F021
:1048E000010394E8070098471034AC42F6D3FBF775
:1048F00001FC0000E4690008046A000802E008C83E
:10490000121F08C1002AFAD170477047002001E049
:1049100001C1121F002AFBD17047020406080000E3
:10492000000000000000010203040607080900005F
:104930000000010203040102030406070809000243
:1049400002F2121212F2020202FE02020200000041
:10495000000F0404040F0040807F000000000000EE
:10496000FE0202F2121212F20202FE000000000029
:104970007F2020272424242720207F00000000FC03
:104980000000FF004020D8171010F0101000000F9A
:104990000402FF008040211608162140800000001C
:1049A000FE0AEA2A2AEA0A424242FE4242008060A5
:1049B0001F40CB52322B200244807F0000008080B9
:1049C0004020504844C3444850204080800000406C
:1049D000221A0242827F0202020A126000000404CC
:1049E0000484E43C2724242424E404040400040272
:1049F0000100FF0909090949897F00000000100C26
:104A000024A4A4A4A5F6A4A4A4A424140C00020223
:104A100002FA4A4A4A4F4A4A4AFA0202020000048B
:104A20000404FF2424242424FF04040400000808B0
:104A300088482F09090909092F48880808000080BB
:104A400060F88780FC4020FF1008F800000001009B
:104A500000FF00003F40404F4044474078001010A6
:104A600010FF109004040404FC0404040400044433
:104A7000827F0100000040807F00000000008082F3
:104A80008282FE8282828282FE8282828000008016
:104A900040300F0000000000FF0000000000000098
:104AA0001011161010F01010141310000000818166
:104AB000414121110D030D1121414181810000F877
:104AC0000122202222A2FA22222202FE000000FF5E
:104AD0000008040211201F000040807F0000000039
:104AE000E28282828282828282FE000000000000D6
:104AF0003F4040404040404040404078000010600F
:104B0000028C0024242FE42424E42F242400040411
:104B10007E0100FF11090719090749917F00202034
:104B200020FF2020109011161010D010000010301F
:104B3000100F084840415E40704E41404000202028
:104B400020FF202202FE0202625A46C0000008181E
:104B5000080744348E8146281028468180008080D2
:104B60008888888888FF88888888888080002020B6
:104B70001008040201FF0102040810202000106048
:104B8000020CC000E22C203F2028E60000000404B4
:104B90007C030000FF09090949897F00000000200B
:104BA00022AAAAAAAABFAAAAAAAA2220000004048A
:104BB0003C2724242D3624A4A47F24240400404030
:104BC00042CC00808888FF8888FF88888000004069
:104BD000201F2040504C4340405F404040000010A8
:104BE00088C4330040424242C24242424000020175
:104BF00000FF0000000040807F0000000000000077
:104C0000F010101010FF10101010F0000000000045
:104C10000F04040404FF040404040F00000000FC5B
:104C2000848484FC001010101010FF101000003F4E
:104C30001010103F0000010640807F00000000F8C7
:104C4000010600F0121212F2020202FE000000FF42
:104C50000000001F1111111F0040807F00000000A4
:104C600000C080808080808080FC84808080808004
:104C700080C0C0000000000000FF7F404040404076
:104C800040FF40404040404040FF7F0000000000A7
:104C90000000000000000000007F70000000000025
:104CA0000000000000000000000000000000000004
:104CB0000000000000FCF800000000000000000000
:104CC00000000000000000000000FFFE02020202DF
:104CD0000202020202FFFF020202020202020202BA
:104CE000FF0300000000000000001F1F0404040474
:104CF0000404040404FFFF0404040404040404047E
:104D00001F00000000000000000000000000000084
:104D100000000000007F3F000000000000000000D5
:104D20000000000000000000000000000000000083
:104D30000000000000000000000000000000000073
:104D4000000000F8F8F0F070200000000000000003
:104D50000000000000000000000000000000000053
:104D600000000000000000000000000000008000C3
:104D70000000000000000000000000000000000033
:104D8000000000FFFFFFFF00000000000000000027
:104D90000000000000000000000080800000000013
:104DA000000000000000000000000000000000FF04
:104DB000FFFE0606060606060606060606060606A2
:104DC000060606FFFFFFFF0606060606060606069F
:104DD000060606060606060606FFFFFFFF07020098
:104DE000000000000000000000000000000000FFC4
:104DF000FFFF0000000000000000000000000000B5
:104E0000000000FFFFFFFF000000000000000000A6
:104E1000000000000000000000FFFFFFFF00000096
:104E2000000000000000000000000000000000FF83
:104E3000FFFF181818181818181818181818181824
:104E4000181818FFFFFFFF18181818181818181846
:104E5000181818181818181818FFFFFFFF0000007E
:104E6000000000000000000000000000000002013F
:104E70000100000000000000000000000000000031
:104E8000000000FFFFFFFF00000000000000000026
:104E90000000000000000000000101000000000010
:104EA0000000000000000000000000000000000002
:104EB00000000000000000000000000000000000F2
:104EC000000000FFFFFFFF000000000000000000E6
:104ED00000000000000000000000000000000000D2
:104EE00000000000000000000000000000000000C2
:104EF00000000000000000000000000000000000B2
:104F00000000001F1F0F0F00000000000000000045
:104F10000000000000000000000000000000000091
:104F20000000000000000000000000000000002F52
:104F3000000000000700070000147F147F14002405
:104F40002A7F2A1200626408132300364955225032
:104F500000000503000000001C2241000000412267
:104F60001C000014083E08140008083E0808000051
:104F700000A0600000080808080800006060000049
:104F8000002010080402003E5149453E0000427FC7
:104F90004000004261514946002141454B31001813
:104FA00014127F10002745454539003C4A494930D5
:104FB000000171090503003649494936000649498F
:104FC000291E00003636000000005636000000089A
:104FD0001422410000141414141400004122140877
:104FE00000020151090600324959513E007C12115C
:104FF000127C007F49494936003E41414122007FF1
:105000004141221C007F49494941007F09090901AA
:10501000003E4149497A007F0808087F0000417F2F
:105020004100002040413F01007F08142241007FE1
:1050300040404040007F020C027F007F0408107F48
:10504000003E4141413E007F09090906003E4151B1
:10505000215E007F0919294600464949493100016E
:10506000017F0101003F4040403F001F2040201FC2
:10507000003F4038403F0063140814630007087085
:10508000080700615149454300007F414100005538
:105090002A552A55000041417F0000040201020404
:1050A00000404040404000000102040000205454F1
:1050B0005478007F48444438003844444420003841
:1050C0004444487F00385454541800087E090102B3
:1050D0000018A4A4A47C007F080404780000447D88
:1050E0004000004080847D00007F102844000000C4
:1050F000417F4000007C04180478007C0804047898
:1051000000384444443800FC242424180018242483
:1051100018FC007C0804040800485454542000047F
:105120003F444020003C4040207C001C2040201C8C
:10513000003C4030403C004428102844001CA0A003
:10514000A07C004464544C4414141414141400003F
:10515000000000000000000000000000FC00000053
:10516000000002000000000C020C02000000000021
:10517000000090D0BCD0BC900003000300001824B5
:10518000FE448C000302070201001824D8B04C80B2
:10519000000300010201C038E438E000010202010E
:1051A00002020806000000000000000000000000ED
:1051B00000F80402000000010204000204F80000EC
:1051C0000004020100009060F860900000000100FF
:1051D00000002020FC202000000001000000000052
:1051E0000000000008060000000020202020200011
:1051F00000000000000000000000000000020000AD
:1052000000000080601C0200040300000000F8049D
:105210000404F8000102020201000008FC00000082
:105220000002030200001884442418000302020252
:10523000020008042424D80001020202010040B048
:1052400088FC80000000000302003C242424C400E9
:10525000010202020100F824242CC0000102020213
:1052600001000C04E41C0400000003000000D8242A
:105270002424D80001020202010038444444F8000A
:105280000003020201000000100000000000020004
:1052900000000000200000000000060000000020C8
:1052A000508804020000000001029090909090004D
:1052B00000000000000000020488502000020100ED
:1052C00000001804C4241800000002000000F804C4
:1052D000E494F80001020202020000E09CF0800069
:1052E00002030000030204FC2424D800020302028B
:1052F0000100F80404040C0001020202010004FC95
:105300000404F80002030202010004FC24740C00EF
:1053100002030202030004FC24740C0002030200D6
:105320000000F0080444CC4000010202010004FC2B
:105330002020FC040203000003020404FC04040017
:10534000020203020200000404FC04040604040335
:10535000000004FC24D00C0402030200030204FC3D
:1053600004000000020302020203FC3CC03CFC00FB
:1053700003000300030004FC30C4FC040203020029
:105380000300F8040404F80001020202010004FC16
:1053900024241800020302000000F8848404F800AA
:1053A00001020207050004FC2464980002030200C5
:1053B0000302182424448C000302020201000C049E
:1053C000FC040C0000020302000004FC0000FC04CA
:1053D000000102020100047C80E01C0400000300C4
:1053E00000001CE03CE01C00000300030000049CE3
:1053F000609C0400020300030200041CE01C040083
:105400000002030200000C84641C04000203020278
:1054100003000000FE020200000007040400000E6A
:1054200030C00000000000010200000202FE000087
:105430000004040700000004020400000000000053
:10544000000000000000000008080808080800002C
:10545000020000000000000000000040A0A0C0000A
:1054600000010202030204FC2020C000000302022B
:10547000010000C02020600000010202020000C004
:105480002024FC0000010202030200C0A0A0C00012
:105490000001020202000020F8242404000203029A
:1054A00002000040A0A0602000070A0A0A0404FCD1
:1054B0002020C0000203020003020020E4000000DC
:1054C000000203020000000020E4000008080807B2
:1054D000000004FC80E02020020302000302040418
:1054E000FC000000020203020200E020E020C000F5
:1054F00003000300030020E02020C000020302009C
:10550000030200C02020C00000010202010020E0D0
:105510002020C000080F0A02010000C02020E00087
:105520000001020A0F0820E04020200002030200D0
:1055300000000060A0A02000000202020300002082
:10554000F820000000000102020020E00020E0003E
:1055500000010202030220E020806020000003011D
:1055600000006080E0806000000300030000206015
:105570008060200002030003020020E02080602001
:105580000808070100000020A060200000020302BC
:105590000200000020DE02000000000704000000FE
:1055A00000FF00000000000F00000002DE200000ED
:1055B00000040700000002010204040200000000D1
:1055C00000000000000000000000000000000000DB
:1055D0000000000000F80000000000000033300070
:1055E000000000100C06100C060000000000000077
:1055F000000040C07840C0784000043F04043F04ED
:105600000400007088FC08300000001820FF211EF4
:105610000000F008F000E018000000211C031E212B
:105620001E0000F00888700000001E2123241927A6
:10563000211010160E000000000000000000000005
:105640000000000000E0180402000000000718201D
:10565000400000020418E00000000040201807008D
:105660000000404080F0804040000202010F010233
:105670000200000000F0000000000101011F010114
:105680000100000000000000000080B07000000079
:105690000000000000000000000000010101010105
:1056A0000101000000000000000000303000000098
:1056B000000000000000806018040060180601006F
:1056C000000000E010080810E000000F102020107B
:1056D0000F00001010F8000000000020203F2020E4
:1056E000000000700808088870000030282422217B
:1056F0003000003008888848300000182020201131
:105700000E000000C02010F8000000070424243F11
:10571000240000F8088888080800001921202011BA
:105720000E0000E0108888180000000F11202011E2
:105730000E0000380808C83808000000003F0000CC
:1057400000000070880808887000001C22212122B7
:105750001C0000E010080810E000000031222211B7
:105760000F00000000C0C00000000000003030004A
:1057700000000000008000000000000080600000C9
:105780000000000080402010080000010204081002
:105790002000404040404040400004040404040411
:1057A00004000008102040800000002010080402BF
:1057B0000100007048080808F000000000303601C1
:1057C0000000C030C828E810E00007182724231480
:1057D0000B000000C038E0000000203C230202273C
:1057E000382008F8888888700000203F2020201189
:1057F0000E00C030080808083800071820202010C4
:10580000080008F808080810E000203F20202010B9
:105810000F0008F88888E8081000203F2020232087
:10582000180008F88888E8081000203F20000300CE
:105830000000C03008080838000007182020221E89
:10584000020008F808000008F808203F21010121A3
:105850003F20000808F8080800000020203F202012
:10586000000000000808F8080800C08080807F0061
:10587000000008F888C028180800203F20012638BA
:10588000200008F8080000000000203F2020202011
:10589000300008F8F800F8F80800203F003F003F0B
:1058A000200008F830C00008F808203F2000071842
:1058B0003F00E01008080810E0000F102020201022
:1058C0000F0008F808080808F000203F2101010136
:1058D0000000E01008080810E0000F1824243850D9
:1058E0004F0008F8888888887000203F2000030C4B
:1058F0003020007088080808380000382021212254
:105900001C00180808F8080818000000203F2000B4
:10591000000008F808000008F808001F20202020D8
:105920001F000878880000C83808000007380E01FA
:105930000000F80800F80008F800033C0700073CE6
:105940000300081868808068180820302C03032C96
:1059500030200838C800C83808000000203F200068
:10596000000010080808C838080020382621202028
:105970001800000000FE020202000000007F40400C
:105980004000000C30C0000000000000000106389C
:10599000C00000020202FE000000004040407F0004
:1059A00000000000040202020400000000000000E9
:1059B00000000000000000000000808080808080E7
:1059C00080800002020400000000000000000000CF
:1059D0000000000080808080000000192422222224
:1059E0003F2008F8008080000000003F11202011B7
:1059F0000E000000008080800000000E112020209A
:105A00001100000000808088F800000E1120201096
:105A10003F200000808080800000001F2222222280
:105A20001300008080F0888888180020203F202004
:105A300000000000808080808000006B949494932C
:105A4000600008F8008080800000203F21000020D6
:105A50003F2000809898000000000020203F202078
:105A60000000000000809898000000C08080807FC7
:105A7000000008F8000080808000203F24022D30C4
:105A80002000000808F8000000000020203F20202F
:105A900000008080808080808000203F20003F20A8
:105AA000003F8080008080800000203F2100002097
:105AB0003F200000808080800000001F20202020E8
:105AC0001F00808000808000000080FFA120201146
:105AD0000E000000008080808000000E112020A0B9
